{
  "contractName": "ThreeBoxRecoveryModule",
  "abi": [
    {
      "anonymous": false,
      "inputs": [
        {
          "indexed": false,
          "internalType": "address",
          "name": "masterCopy",
          "type": "address"
        }
      ],
      "name": "ChangedMasterCopy",
      "type": "event"
    },
    {
      "constant": true,
      "inputs": [],
      "name": "NAME",
      "outputs": [
        {
          "internalType": "string",
          "name": "",
          "type": "string"
        }
      ],
      "payable": false,
      "stateMutability": "view",
      "type": "function"
    },
    {
      "constant": true,
      "inputs": [],
      "name": "VERSION",
      "outputs": [
        {
          "internalType": "string",
          "name": "",
          "type": "string"
        }
      ],
      "payable": false,
      "stateMutability": "view",
      "type": "function"
    },
    {
      "constant": true,
      "inputs": [],
      "name": "backupAdminAddress",
      "outputs": [
        {
          "internalType": "address",
          "name": "",
          "type": "address"
        }
      ],
      "payable": false,
      "stateMutability": "view",
      "type": "function"
    },
    {
      "constant": false,
      "inputs": [
        {
          "internalType": "address",
          "name": "_masterCopy",
          "type": "address"
        }
      ],
      "name": "changeMasterCopy",
      "outputs": [],
      "payable": false,
      "stateMutability": "nonpayable",
      "type": "function"
    },
    {
      "constant": true,
      "inputs": [],
      "name": "manager",
      "outputs": [
        {
          "internalType": "contract ModuleManager",
          "name": "",
          "type": "address"
        }
      ],
      "payable": false,
      "stateMutability": "view",
      "type": "function"
    },
    {
      "constant": false,
      "inputs": [
        {
          "internalType": "address",
          "name": "_backupAddress",
          "type": "address"
        }
      ],
      "name": "setup",
      "outputs": [],
      "payable": false,
      "stateMutability": "nonpayable",
      "type": "function"
    },
    {
      "constant": false,
      "inputs": [
        {
          "internalType": "address",
          "name": "prevOwner",
          "type": "address"
        },
        {
          "internalType": "address",
          "name": "oldOwner",
          "type": "address"
        },
        {
          "internalType": "address",
          "name": "newOwner",
          "type": "address"
        }
      ],
      "name": "recoverAccess",
      "outputs": [],
      "payable": false,
      "stateMutability": "nonpayable",
      "type": "function"
    }
  ],
  "bytecode": "0x608060405234801561001057600080fd5b50610bbe806100206000396000f3fe608060405234801561001057600080fd5b506004361061007d5760003560e01c80637de7edef1161005b5780637de7edef14610194578063a3f4df7e146101d8578063a497baba1461025b578063ffa1ad74146102a55761007d565b8063481c6a751461008257806366d38203146100cc57806377231eaa14610110575b600080fd5b61008a610328565b604051808273ffffffffffffffffffffffffffffffffffffffff1673ffffffffffffffffffffffffffffffffffffffff16815260200191505060405180910390f35b61010e600480360360208110156100e257600080fd5b81019080803573ffffffffffffffffffffffffffffffffffffffff16906020019092919050505061034e565b005b6101926004803603606081101561012657600080fd5b81019080803573ffffffffffffffffffffffffffffffffffffffff169060200190929190803573ffffffffffffffffffffffffffffffffffffffff169060200190929190803573ffffffffffffffffffffffffffffffffffffffff1690602001909291905050506103b5565b005b6101d6600480360360208110156101aa57600080fd5b81019080803573ffffffffffffffffffffffffffffffffffffffff1690602001909291905050506107ce565b005b6101e06109a0565b6040518080602001828103825283818151815260200191508051906020019080838360005b83811015610220578082015181840152602081019050610205565b50505050905090810190601f16801561024d5780820380516001836020036101000a031916815260200191505b509250505060405180910390f35b6102636109d9565b604051808273ffffffffffffffffffffffffffffffffffffffff1673ffffffffffffffffffffffffffffffffffffffff16815260200191505060405180910390f35b6102ad6109ff565b6040518080602001828103825283818151815260200191508051906020019080838360005b838110156102ed5780820151818401526020810190506102d2565b50505050905090810190601f16801561031a5780820380516001836020036101000a031916815260200191505b509250505060405180910390f35b600160009054906101000a900473ffffffffffffffffffffffffffffffffffffffff1681565b610356610a38565b80600260006101000a81548173ffffffffffffffffffffffffffffffffffffffff021916908373ffffffffffffffffffffffffffffffffffffffff1602179055506001600260146101000a81548160ff02191690831515021790555050565b60011515600260149054906101000a900460ff1615151461043e576040517f08c379a00000000000000000000000000000000000000000000000000000000081526004018080602001828103825260168152602001807f416c7265616479205265636f7665726564204f6e63650000000000000000000081525060200191505060405180910390fd5b600260009054906101000a900473ffffffffffffffffffffffffffffffffffffffff1673ffffffffffffffffffffffffffffffffffffffff163373ffffffffffffffffffffffffffffffffffffffff1614610501576040517f08c379a000000000000000000000000000000000000000000000000000000000815260040180806020018281038252601e8152602001807f4e6f742074686520636f7272656374206261636b7570204163636f756e74000081525060200191505060405180910390fd5b6060816001604051602401808373ffffffffffffffffffffffffffffffffffffffff1673ffffffffffffffffffffffffffffffffffffffff1681526020018260ff168152602001925050506040516020818303038152906040527f0d582f13000000000000000000000000000000000000000000000000000000007bffffffffffffffffffffffffffffffffffffffffffffffffffffffff19166020820180517bffffffffffffffffffffffffffffffffffffffffffffffffffffffff83818316178352505050509050600160009054906101000a900473ffffffffffffffffffffffffffffffffffffffff1673ffffffffffffffffffffffffffffffffffffffff1663468721a7600160009054906101000a900473ffffffffffffffffffffffffffffffffffffffff1660008460006040518563ffffffff1660e01b8152600401808573ffffffffffffffffffffffffffffffffffffffff1673ffffffffffffffffffffffffffffffffffffffff1681526020018481526020018060200183600181111561068c57fe5b60ff168152602001828103825284818151815260200191508051906020019080838360005b838110156106cc5780820151818401526020810190506106b1565b50505050905090810190601f1680156106f95780820380516001836020036101000a031916815260200191505b5095505050505050602060405180830381600087803b15801561071b57600080fd5b505af115801561072f573d6000803e3d6000fd5b505050506040513d602081101561074557600080fd5b81019080805190602001909291905050506107c8576040517f08c379a000000000000000000000000000000000000000000000000000000000815260040180806020018281038252601a8152602001807f436f756c64206e6f742065786563757465207265636f7665727900000000000081525060200191505060405180910390fd5b50505050565b600160009054906101000a900473ffffffffffffffffffffffffffffffffffffffff1673ffffffffffffffffffffffffffffffffffffffff163373ffffffffffffffffffffffffffffffffffffffff1614610874576040517f08c379a0000000000000000000000000000000000000000000000000000000008152600401808060200182810382526026815260200180610b646026913960400191505060405180910390fd5b600073ffffffffffffffffffffffffffffffffffffffff168173ffffffffffffffffffffffffffffffffffffffff1614156108fa576040517f08c379a0000000000000000000000000000000000000000000000000000000008152600401808060200182810382526024815260200180610b406024913960400191505060405180910390fd5b806000806101000a81548173ffffffffffffffffffffffffffffffffffffffff021916908373ffffffffffffffffffffffffffffffffffffffff1602179055507f75e41bc35ff1bf14d81d1d2f649c0084a0f974f9289c803ec9898eeec4c8d0b881604051808273ffffffffffffffffffffffffffffffffffffffff1673ffffffffffffffffffffffffffffffffffffffff16815260200191505060405180910390a150565b6040518060400160405280601481526020017f33426f78205265636f76657279204d6f64756c6500000000000000000000000081525081565b600260009054906101000a900473ffffffffffffffffffffffffffffffffffffffff1681565b6040518060400160405280600581526020017f302e312e3000000000000000000000000000000000000000000000000000000081525081565b600073ffffffffffffffffffffffffffffffffffffffff16600160009054906101000a900473ffffffffffffffffffffffffffffffffffffffff1673ffffffffffffffffffffffffffffffffffffffff1614610afc576040517f08c379a000000000000000000000000000000000000000000000000000000000815260040180806020018281038252601c8152602001807f4d616e616765722068617320616c7265616479206265656e207365740000000081525060200191505060405180910390fd5b33600160006101000a81548173ffffffffffffffffffffffffffffffffffffffff021916908373ffffffffffffffffffffffffffffffffffffffff16021790555056fe496e76616c6964206d617374657220636f707920616464726573732070726f76696465644d6574686f642063616e206f6e6c792062652063616c6c65642066726f6d206d616e61676572a265627a7a72315820e4b240267615c8f0cce7f8df7a88402f01094fd55beee40ed2a3cf4bebcef00564736f6c63430005100032",
  "source": "pragma solidity >=0.5.0 <0.7.0;\nimport \"@gnosis.pm/safe-contracts/contracts/base/Module.sol\";\nimport \"@gnosis.pm/safe-contracts/contracts/base/ModuleManager.sol\";\nimport \"@gnosis.pm/safe-contracts/contracts/base/OwnerManager.sol\";\nimport \"@gnosis.pm/safe-contracts/contracts/common/Enum.sol\";\n\n\n/// @title 3Box Recovery Module - Allows to replace an owner without Safe confirmations with 3Box integration\n/// @author Manank Patni - <manank321@gmail.com>\ncontract ThreeBoxRecoveryModule is Module {\n    string public constant NAME = \"3Box Recovery Module\";\n    string public constant VERSION = \"0.1.0\";\n\n    address public backupAdminAddress;\n    bool isRecoverable;\n\n    modifier onlyBackup() {\n        require(isRecoverable == true,'Already Recovered Once');\n        _;\n    }\n\n    function setup(address _backupAddress)\n    public\n    {\n        setManager();\n        backupAdminAddress = _backupAddress;\n        isRecoverable = true;\n    }\n\n    function recoverAccess(address prevOwner, address oldOwner, address newOwner)\n        public\n        onlyBackup\n    {\n        require(msg.sender == backupAdminAddress, 'Not the correct backup Account');\n        //bytes memory data = abi.encodeWithSignature(\"swapOwner(address,address,address)\", prevOwner, oldOwner, newOwner);\n        bytes memory addOwnerData = abi.encodeWithSignature(\"addOwnerWithThreshold(address,uint256)\", newOwner, 1);\n        require(manager.execTransactionFromModule(address(manager), 0, addOwnerData, Enum.Operation.Call), \"Could not execute recovery\");\n    }\n}",
  "sourcePath": "/home/manjain/Documents/gnosis3boxrecovery/src/contracts/contracts/ThreeBoxRecoveryModule.sol",
  "compiler": {
    "name": "solc",
    "version": "0.5.16+commit.9c3226ce.Emscripten.clang"
  },
  "schemaVersion": "3.1.0",
  "updatedAt": "2020-05-03T08:41:50.872Z",
  "devdoc": {
    "author": "Manank Patni - <manank321@gmail.com>",
    "methods": {
      "changeMasterCopy(address)": {
        "details": "Allows to upgrade the contract. This can only be done via a Safe transaction.",
        "params": {
          "_masterCopy": "New contract address."
        }
      }
    },
    "title": "3Box Recovery Module - Allows to replace an owner without Safe confirmations with 3Box integration"
  },
  "userdoc": {
    "methods": {}
  }
}